{
  "_format": "hh-sol-artifact-1",
  "contractName": "PermissionLib",
  "sourceName": "@aragon/osx/core/permission/PermissionLib.sol",
  "abi": [
    {
      "inputs": [],
      "name": "NO_CONDITION",
      "outputs": [
        {
          "internalType": "address",
          "name": "",
          "type": "address"
        }
      ],
      "stateMutability": "view",
      "type": "function"
    }
  ],
  "bytecode": "0x60e3610052600b82828239805160001a607314610045577f4e487b7100000000000000000000000000000000000000000000000000000000600052600060045260246000fd5b30600052607381538281f3fe730000000000000000000000000000000000000000301460806040526004361060335760003560e01c80636dd02a5b146038575b600080fd5b603e6052565b604051604991906094565b60405180910390f35b600081565b600073ffffffffffffffffffffffffffffffffffffffff82169050919050565b60006080826057565b9050919050565b608e816077565b82525050565b600060208201905060a760008301846087565b9291505056fea264697066735822122082c3141d6f9c29c1557893823728d2500de6b1ab106aa33e2ed47759baba5d9b64736f6c63430008130033",
  "linkReferences": {},
  "deployedLinkReferences": {}
}