{"@aragon/osx/core/permission/PermissionLib.sol":{"PermissionLib":{"abi":[{"inputs":[],"name":"NO_CONDITION","outputs":[{"internalType":"address","name":"","type":"address"}],"stateMutability":"view","type":"function"}],"devdoc":{"author":"Aragon Association - 2021-2023","kind":"dev","methods":{},"title":"PermissionLib","version":1},"evm":{"bytecode":{"linkReferences":{},"object":"60e3610052600b82828239805160001a607314610045577f4e487b7100000000000000000000000000000000000000000000000000000000600052600060045260246000fd5b30600052607381538281f3fe730000000000000000000000000000000000000000301460806040526004361060335760003560e01c80636dd02a5b146038575b600080fd5b603e6052565b604051604991906094565b60405180910390f35b600081565b600073ffffffffffffffffffffffffffffffffffffffff82169050919050565b60006080826057565b9050919050565b608e816077565b82525050565b600060208201905060a760008301846087565b9291505056fea264697066735822122082c3141d6f9c29c1557893823728d2500de6b1ab106aa33e2ed47759baba5d9b64736f6c63430008130033","opcodes":"PUSH1 0xE3 PUSH2 0x52 PUSH1 0xB DUP3 DUP3 DUP3 CODECOPY DUP1 MLOAD PUSH1 0x0 BYTE PUSH1 0x73 EQ PUSH2 0x45 JUMPI PUSH32 0x4E487B7100000000000000000000000000000000000000000000000000000000 PUSH1 0x0 MSTORE PUSH1 0x0 PUSH1 0x4 MSTORE PUSH1 0x24 PUSH1 0x0 REVERT JUMPDEST ADDRESS PUSH1 0x0 MSTORE PUSH1 0x73 DUP2 MSTORE8 DUP3 DUP2 RETURN INVALID PUSH20 0x0 ADDRESS EQ PUSH1 0x80 PUSH1 0x40 MSTORE PUSH1 0x4 CALLDATASIZE LT PUSH1 0x33 JUMPI PUSH1 0x0 CALLDATALOAD PUSH1 0xE0 SHR DUP1 PUSH4 0x6DD02A5B EQ PUSH1 0x38 JUMPI JUMPDEST PUSH1 0x0 DUP1 REVERT JUMPDEST PUSH1 0x3E PUSH1 0x52 JUMP JUMPDEST PUSH1 0x40 MLOAD PUSH1 0x49 SWAP2 SWAP1 PUSH1 0x94 JUMP JUMPDEST PUSH1 0x40 MLOAD DUP1 SWAP2 SUB SWAP1 RETURN JUMPDEST PUSH1 0x0 DUP2 JUMP JUMPDEST PUSH1 0x0 PUSH20 0xFFFFFFFFFFFFFFFFFFFFFFFFFFFFFFFFFFFFFFFF DUP3 AND SWAP1 POP SWAP2 SWAP1 POP JUMP JUMPDEST PUSH1 0x0 PUSH1 0x80 DUP3 PUSH1 0x57 JUMP JUMPDEST SWAP1 POP SWAP2 SWAP1 POP JUMP JUMPDEST PUSH1 0x8E DUP2 PUSH1 0x77 JUMP JUMPDEST DUP3 MSTORE POP POP JUMP JUMPDEST PUSH1 0x0 PUSH1 0x20 DUP3 ADD SWAP1 POP PUSH1 0xA7 PUSH1 0x0 DUP4 ADD DUP5 PUSH1 0x87 JUMP JUMPDEST SWAP3 SWAP2 POP POP JUMP INVALID LOG2 PUSH5 0x6970667358 0x22 SLT KECCAK256 DUP3 0xC3 EQ SAR PUSH16 0x9C29C1557893823728D2500DE6B1AB10 PUSH11 0xA33E2ED47759BABA5D9B64 PUSH20 0x6F6C634300081300330000000000000000000000 "},"gasEstimates":{"creation":{"codeDepositCost":"45400","executionCost":"124","totalCost":"45524"},"external":{"NO_CONDITION()":"340"}},"methodIdentifiers":{"NO_CONDITION()":"6dd02a5b"}},"storageLayout":{"storage":[],"types":null},"userdoc":{"kind":"user","methods":{"NO_CONDITION()":{"notice":"A constant expressing that no condition is applied to a permission."}},"notice":"A library containing objects for permission processing.","version":1}}}}