{
  "_format": "hh-sol-artifact-1",
  "contractName": "LendNFTPlugin",
  "sourceName": "contracts/LendNFTPlugin.sol",
  "abi": [
    {
      "inputs": [
        {
          "internalType": "contract IDAO",
          "name": "_dao",
          "type": "address"
        }
      ],
      "stateMutability": "nonpayable",
      "type": "constructor"
    },
    {
      "inputs": [
        {
          "internalType": "address",
          "name": "dao",
          "type": "address"
        },
        {
          "internalType": "address",
          "name": "where",
          "type": "address"
        },
        {
          "internalType": "address",
          "name": "who",
          "type": "address"
        },
        {
          "internalType": "bytes32",
          "name": "permissionId",
          "type": "bytes32"
        }
      ],
      "name": "DaoUnauthorized",
      "type": "error"
    },
    {
      "inputs": [],
      "name": "GREET_PERMISSION_ID",
      "outputs": [
        {
          "internalType": "bytes32",
          "name": "",
          "type": "bytes32"
        }
      ],
      "stateMutability": "view",
      "type": "function"
    },
    {
      "inputs": [],
      "name": "dao",
      "outputs": [
        {
          "internalType": "contract IDAO",
          "name": "",
          "type": "address"
        }
      ],
      "stateMutability": "view",
      "type": "function"
    },
    {
      "inputs": [],
      "name": "lend_money",
      "outputs": [],
      "stateMutability": "nonpayable",
      "type": "function"
    },
    {
      "inputs": [],
      "name": "pluginType",
      "outputs": [
        {
          "internalType": "enum IPlugin.PluginType",
          "name": "",
          "type": "uint8"
        }
      ],
      "stateMutability": "pure",
      "type": "function"
    },
    {
      "inputs": [
        {
          "internalType": "bytes4",
          "name": "_interfaceId",
          "type": "bytes4"
        }
      ],
      "name": "supportsInterface",
      "outputs": [
        {
          "internalType": "bool",
          "name": "",
          "type": "bool"
        }
      ],
      "stateMutability": "view",
      "type": "function"
    }
  ],
  "bytecode": "0x60a060405234801561001057600080fd5b506040516133693803806133698339818101604052810190610032919061015a565b80808073ffffffffffffffffffffffffffffffffffffffff1660808173ffffffffffffffffffffffffffffffffffffffff16815250505050604051610076906100d8565b604051809103906000f080158015610092573d6000803e3d6000fd5b506000806101000a81548173ffffffffffffffffffffffffffffffffffffffff021916908373ffffffffffffffffffffffffffffffffffffffff16021790555050610187565b612a118061095883390190565b600080fd5b600073ffffffffffffffffffffffffffffffffffffffff82169050919050565b6000610115826100ea565b9050919050565b60006101278261010a565b9050919050565b6101378161011c565b811461014257600080fd5b50565b6000815190506101548161012e565b92915050565b6000602082840312156101705761016f6100e5565b5b600061017e84828501610145565b91505092915050565b6080516107af6101a960003960008181610190015261027101526107af6000f3fe608060405234801561001057600080fd5b50600436106100575760003560e01c806301ffc9a71461005c5780631a0d86101461008c5780631c7b4de4146100965780634162169f146100b457806341de6830146100d2575b600080fd5b6100766004803603810190610071919061044b565b6100f0565b6040516100839190610493565b60405180910390f35b61009461016a565b005b61009e610249565b6040516100ab91906104c7565b60405180910390f35b6100bc61026d565b6040516100c99190610561565b60405180910390f35b6100da610295565b6040516100e791906105f3565b60405180910390f35b60007f41de6830000000000000000000000000000000000000000000000000000000007bffffffffffffffffffffffffffffffffffffffffffffffffffffffff1916827bffffffffffffffffffffffffffffffffffffffffffffffffffffffff1916148061016357506101628261029e565b5b9050919050565b7f1bd70c5aa931fa900de716024b36e36cc236a1ce16d32948668c08aa04e680f26101c67f0000000000000000000000000000000000000000000000000000000000000000306101b8610308565b846101c1610310565b61031d565b60008054906101000a900473ffffffffffffffffffffffffffffffffffffffff1673ffffffffffffffffffffffffffffffffffffffff16639cbf9e366040518163ffffffff1660e01b8152600401600060405180830381600087803b15801561022e57600080fd5b505af1158015610242573d6000803e3d6000fd5b5050505050565b7f1bd70c5aa931fa900de716024b36e36cc236a1ce16d32948668c08aa04e680f281565b60007f0000000000000000000000000000000000000000000000000000000000000000905090565b60006002905090565b60007f01ffc9a7000000000000000000000000000000000000000000000000000000007bffffffffffffffffffffffffffffffffffffffffffffffffffffffff1916827bffffffffffffffffffffffffffffffffffffffffffffffffffffffff1916149050919050565b600033905090565b3660008036915091509091565b8573ffffffffffffffffffffffffffffffffffffffff1663fdef910686868686866040518663ffffffff1660e01b815260040161035e95949392919061068d565b602060405180830381865afa15801561037b573d6000803e3d6000fd5b505050506040513d601f19601f8201168201806040525081019061039f9190610707565b6103e657858585856040517f32dbe3b40000000000000000000000000000000000000000000000000000000081526004016103dd9493929190610734565b60405180910390fd5b505050505050565b600080fd5b60007fffffffff0000000000000000000000000000000000000000000000000000000082169050919050565b610428816103f3565b811461043357600080fd5b50565b6000813590506104458161041f565b92915050565b600060208284031215610461576104606103ee565b5b600061046f84828501610436565b91505092915050565b60008115159050919050565b61048d81610478565b82525050565b60006020820190506104a86000830184610484565b92915050565b6000819050919050565b6104c1816104ae565b82525050565b60006020820190506104dc60008301846104b8565b92915050565b600073ffffffffffffffffffffffffffffffffffffffff82169050919050565b6000819050919050565b600061052761052261051d846104e2565b610502565b6104e2565b9050919050565b60006105398261050c565b9050919050565b600061054b8261052e565b9050919050565b61055b81610540565b82525050565b60006020820190506105766000830184610552565b92915050565b7f4e487b7100000000000000000000000000000000000000000000000000000000600052602160045260246000fd5b600381106105bc576105bb61057c565b5b50565b60008190506105cd826105ab565b919050565b60006105dd826105bf565b9050919050565b6105ed816105d2565b82525050565b600060208201905061060860008301846105e4565b92915050565b6000610619826104e2565b9050919050565b6106298161060e565b82525050565b600082825260208201905092915050565b82818337600083830152505050565b6000601f19601f8301169050919050565b600061066c838561062f565b9350610679838584610640565b6106828361064f565b840190509392505050565b60006080820190506106a26000830188610620565b6106af6020830187610620565b6106bc60408301866104b8565b81810360608301526106cf818486610660565b90509695505050505050565b6106e481610478565b81146106ef57600080fd5b50565b600081519050610701816106db565b92915050565b60006020828403121561071d5761071c6103ee565b5b600061072b848285016106f2565b91505092915050565b60006080820190506107496000830187610620565b6107566020830186610620565b6107636040830185610620565b61077060608301846104b8565b9594505050505056fea2646970667358221220b3f8dc1a6d3b7ade4ee08f458fdb6e383762323d52d01070caec8fe846c033e764736f6c6343000813003360806040523480156200001157600080fd5b506040518060400160405280600f81526020017f4661726d204c656e646572204e465400000000000000000000000000000000008152506040518060400160405280600381526020017f464c4e000000000000000000000000000000000000000000000000000000000081525081600090816200008f919062000324565b508060019081620000a1919062000324565b5050506200040b565b600081519050919050565b7f4e487b7100000000000000000000000000000000000000000000000000000000600052604160045260246000fd5b7f4e487b7100000000000000000000000000000000000000000000000000000000600052602260045260246000fd5b600060028204905060018216806200012c57607f821691505b602082108103620001425762000141620000e4565b5b50919050565b60008190508160005260206000209050919050565b60006020601f8301049050919050565b600082821b905092915050565b600060088302620001ac7fffffffffffffffffffffffffffffffffffffffffffffffffffffffffffffffff826200016d565b620001b886836200016d565b95508019841693508086168417925050509392505050565b6000819050919050565b6000819050919050565b600062000205620001ff620001f984620001d0565b620001da565b620001d0565b9050919050565b6000819050919050565b6200022183620001e4565b6200023962000230826200020c565b8484546200017a565b825550505050565b600090565b6200025062000241565b6200025d81848462000216565b505050565b5b8181101562000285576200027960008262000246565b60018101905062000263565b5050565b601f821115620002d4576200029e8162000148565b620002a9846200015d565b81016020851015620002b9578190505b620002d1620002c8856200015d565b83018262000262565b50505b505050565b600082821c905092915050565b6000620002f960001984600802620002d9565b1980831691505092915050565b6000620003148383620002e6565b9150826002028217905092915050565b6200032f82620000aa565b67ffffffffffffffff8111156200034b576200034a620000b5565b5b62000357825462000113565b6200036482828562000289565b600060209050601f8311600181146200039c576000841562000387578287015190505b62000393858262000306565b86555062000403565b601f198416620003ac8662000148565b60005b82811015620003d657848901518255600182019150602085019450602081019050620003af565b86831015620003f65784890151620003f2601f891682620002e6565b8355505b6001600288020188555050505b505050505050565b6125f6806200041b6000396000f3fe608060405234801561001057600080fd5b50600436106100ea5760003560e01c806370a082311161008c578063a22cb46511610066578063a22cb46514610249578063b88d4fde14610265578063c87b56dd14610281578063e985e9c5146102b1576100ea565b806370a08231146101f157806395d89b41146102215780639cbf9e361461023f576100ea565b8063095ea7b3116100c8578063095ea7b31461016d57806323b872dd1461018957806342842e0e146101a55780636352211e146101c1576100ea565b806301ffc9a7146100ef57806306fdde031461011f578063081812fc1461013d575b600080fd5b610109600480360381019061010491906118f2565b6102e1565b604051610116919061193a565b60405180910390f35b610127610342565b60405161013491906119e5565b60405180910390f35b61015760048036038101906101529190611a3d565b6103d4565b6040516101649190611aab565b60405180910390f35b61018760048036038101906101829190611af2565b61041a565b005b6101a3600480360381019061019e9190611b32565b610531565b005b6101bf60048036038101906101ba9190611b32565b610591565b005b6101db60048036038101906101d69190611a3d565b6105b1565b6040516101e89190611aab565b60405180910390f35b61020b60048036038101906102069190611b85565b610637565b6040516102189190611bc1565b60405180910390f35b6102296106ee565b60405161023691906119e5565b60405180910390f35b610247610780565b005b610263600480360381019061025e9190611c08565b6107a5565b005b61027f600480360381019061027a9190611d7d565b6107bb565b005b61029b60048036038101906102969190611a3d565b61081d565b6040516102a891906119e5565b60405180910390f35b6102cb60048036038101906102c69190611e00565b61092f565b6040516102d8919061193a565b60405180910390f35b6000634906490660e01b7bffffffffffffffffffffffffffffffffffffffffffffffffffffffff1916827bffffffffffffffffffffffffffffffffffffffffffffffffffffffff1916148061033b575061033a826109c3565b5b9050919050565b60606000805461035190611e6f565b80601f016020809104026020016040519081016040528092919081815260200182805461037d90611e6f565b80156103ca5780601f1061039f576101008083540402835291602001916103ca565b820191906000526020600020905b8154815290600101906020018083116103ad57829003601f168201915b5050505050905090565b60006103df82610aa5565b6004600083815260200190815260200160002060009054906101000a900473ffffffffffffffffffffffffffffffffffffffff169050919050565b6000610425826105b1565b90508073ffffffffffffffffffffffffffffffffffffffff168373ffffffffffffffffffffffffffffffffffffffff1603610495576040517f08c379a000000000000000000000000000000000000000000000000000000000815260040161048c90611f12565b60405180910390fd5b8073ffffffffffffffffffffffffffffffffffffffff166104b4610af0565b73ffffffffffffffffffffffffffffffffffffffff1614806104e357506104e2816104dd610af0565b61092f565b5b610522576040517f08c379a000000000000000000000000000000000000000000000000000000000815260040161051990611fa4565b60405180910390fd5b61052c8383610af8565b505050565b61054261053c610af0565b82610bb1565b610581576040517f08c379a000000000000000000000000000000000000000000000000000000000815260040161057890612036565b60405180910390fd5b61058c838383610c46565b505050565b6105ac838383604051806020016040528060008152506107bb565b505050565b6000806105bd83610f3f565b9050600073ffffffffffffffffffffffffffffffffffffffff168173ffffffffffffffffffffffffffffffffffffffff160361062e576040517f08c379a0000000000000000000000000000000000000000000000000000000008152600401610625906120a2565b60405180910390fd5b80915050919050565b60008073ffffffffffffffffffffffffffffffffffffffff168273ffffffffffffffffffffffffffffffffffffffff16036106a7576040517f08c379a000000000000000000000000000000000000000000000000000000000815260040161069e90612134565b60405180910390fd5b600360008373ffffffffffffffffffffffffffffffffffffffff1673ffffffffffffffffffffffffffffffffffffffff168152602001908152602001600020549050919050565b6060600180546106fd90611e6f565b80601f016020809104026020016040519081016040528092919081815260200182805461072990611e6f565b80156107765780601f1061074b57610100808354040283529160200191610776565b820191906000526020600020905b81548152906001019060200180831161075957829003601f168201915b5050505050905090565b61078a6007610f7c565b60006107966007610f92565b90506107a23382610fa0565b50565b6107b76107b0610af0565b83836111bd565b5050565b6107cc6107c6610af0565b83610bb1565b61080b576040517f08c379a000000000000000000000000000000000000000000000000000000000815260040161080290612036565b60405180910390fd5b61081784848484611329565b50505050565b606061082882610aa5565b600060066000848152602001908152602001600020805461084890611e6f565b80601f016020809104026020016040519081016040528092919081815260200182805461087490611e6f565b80156108c15780601f10610896576101008083540402835291602001916108c1565b820191906000526020600020905b8154815290600101906020018083116108a457829003601f168201915b5050505050905060006108d2611385565b905060008151036108e757819250505061092a565b60008251111561091c578082604051602001610904929190612190565b6040516020818303038152906040529250505061092a565b6109258461139c565b925050505b919050565b6000600560008473ffffffffffffffffffffffffffffffffffffffff1673ffffffffffffffffffffffffffffffffffffffff16815260200190815260200160002060008373ffffffffffffffffffffffffffffffffffffffff1673ffffffffffffffffffffffffffffffffffffffff16815260200190815260200160002060009054906101000a900460ff16905092915050565b60007f80ac58cd000000000000000000000000000000000000000000000000000000007bffffffffffffffffffffffffffffffffffffffffffffffffffffffff1916827bffffffffffffffffffffffffffffffffffffffffffffffffffffffff19161480610a8e57507f5b5e139f000000000000000000000000000000000000000000000000000000007bffffffffffffffffffffffffffffffffffffffffffffffffffffffff1916827bffffffffffffffffffffffffffffffffffffffffffffffffffffffff1916145b80610a9e5750610a9d82611404565b5b9050919050565b610aae8161146e565b610aed576040517f08c379a0000000000000000000000000000000000000000000000000000000008152600401610ae4906120a2565b60405180910390fd5b50565b600033905090565b816004600083815260200190815260200160002060006101000a81548173ffffffffffffffffffffffffffffffffffffffff021916908373ffffffffffffffffffffffffffffffffffffffff160217905550808273ffffffffffffffffffffffffffffffffffffffff16610b6b836105b1565b73ffffffffffffffffffffffffffffffffffffffff167f8c5be1e5ebec7d5bd14f71427d1e84f3dd0314c0f7b2291e5b200ac8c7c3b92560405160405180910390a45050565b600080610bbd836105b1565b90508073ffffffffffffffffffffffffffffffffffffffff168473ffffffffffffffffffffffffffffffffffffffff161480610bff5750610bfe818561092f565b5b80610c3d57508373ffffffffffffffffffffffffffffffffffffffff16610c25846103d4565b73ffffffffffffffffffffffffffffffffffffffff16145b91505092915050565b8273ffffffffffffffffffffffffffffffffffffffff16610c66826105b1565b73ffffffffffffffffffffffffffffffffffffffff1614610cbc576040517f08c379a0000000000000000000000000000000000000000000000000000000008152600401610cb390612226565b60405180910390fd5b600073ffffffffffffffffffffffffffffffffffffffff168273ffffffffffffffffffffffffffffffffffffffff1603610d2b576040517f08c379a0000000000000000000000000000000000000000000000000000000008152600401610d22906122b8565b60405180910390fd5b610d3883838360016114af565b8273ffffffffffffffffffffffffffffffffffffffff16610d58826105b1565b73ffffffffffffffffffffffffffffffffffffffff1614610dae576040517f08c379a0000000000000000000000000000000000000000000000000000000008152600401610da590612226565b60405180910390fd5b6004600082815260200190815260200160002060006101000a81549073ffffffffffffffffffffffffffffffffffffffff02191690556001600360008573ffffffffffffffffffffffffffffffffffffffff1673ffffffffffffffffffffffffffffffffffffffff168152602001908152602001600020600082825403925050819055506001600360008473ffffffffffffffffffffffffffffffffffffffff1673ffffffffffffffffffffffffffffffffffffffff16815260200190815260200160002060008282540192505081905550816002600083815260200190815260200160002060006101000a81548173ffffffffffffffffffffffffffffffffffffffff021916908373ffffffffffffffffffffffffffffffffffffffff160217905550808273ffffffffffffffffffffffffffffffffffffffff168473ffffffffffffffffffffffffffffffffffffffff167fddf252ad1be2c89b69c2b068fc378daa952ba7f163c4a11628f55a4df523b3ef60405160405180910390a4610f3a83838360016114b5565b505050565b60006002600083815260200190815260200160002060009054906101000a900473ffffffffffffffffffffffffffffffffffffffff169050919050565b6001816000016000828254019250508190555050565b600081600001549050919050565b600073ffffffffffffffffffffffffffffffffffffffff168273ffffffffffffffffffffffffffffffffffffffff160361100f576040517f08c379a000000000000000000000000000000000000000000000000000000000815260040161100690612324565b60405180910390fd5b6110188161146e565b15611058576040517f08c379a000000000000000000000000000000000000000000000000000000000815260040161104f90612390565b60405180910390fd5b6110666000838360016114af565b61106f8161146e565b156110af576040517f08c379a00000000000000000000000000000000000000000000000000000000081526004016110a690612390565b60405180910390fd5b6001600360008473ffffffffffffffffffffffffffffffffffffffff1673ffffffffffffffffffffffffffffffffffffffff16815260200190815260200160002060008282540192505081905550816002600083815260200190815260200160002060006101000a81548173ffffffffffffffffffffffffffffffffffffffff021916908373ffffffffffffffffffffffffffffffffffffffff160217905550808273ffffffffffffffffffffffffffffffffffffffff16600073ffffffffffffffffffffffffffffffffffffffff167fddf252ad1be2c89b69c2b068fc378daa952ba7f163c4a11628f55a4df523b3ef60405160405180910390a46111b96000838360016114b5565b5050565b8173ffffffffffffffffffffffffffffffffffffffff168373ffffffffffffffffffffffffffffffffffffffff160361122b576040517f08c379a0000000000000000000000000000000000000000000000000000000008152600401611222906123fc565b60405180910390fd5b80600560008573ffffffffffffffffffffffffffffffffffffffff1673ffffffffffffffffffffffffffffffffffffffff16815260200190815260200160002060008473ffffffffffffffffffffffffffffffffffffffff1673ffffffffffffffffffffffffffffffffffffffff16815260200190815260200160002060006101000a81548160ff0219169083151502179055508173ffffffffffffffffffffffffffffffffffffffff168373ffffffffffffffffffffffffffffffffffffffff167f17307eab39ab6107e8899845ad3d59bd9653f200f220920489ca2b5937696c318360405161131c919061193a565b60405180910390a3505050565b611334848484610c46565b611340848484846114bb565b61137f576040517f08c379a00000000000000000000000000000000000000000000000000000000081526004016113769061248e565b60405180910390fd5b50505050565b606060405180602001604052806000815250905090565b60606113a782610aa5565b60006113b1611385565b905060008151116113d157604051806020016040528060008152506113fc565b806113db84611642565b6040516020016113ec929190612190565b6040516020818303038152906040525b915050919050565b60007f01ffc9a7000000000000000000000000000000000000000000000000000000007bffffffffffffffffffffffffffffffffffffffffffffffffffffffff1916827bffffffffffffffffffffffffffffffffffffffffffffffffffffffff1916149050919050565b60008073ffffffffffffffffffffffffffffffffffffffff1661149083610f3f565b73ffffffffffffffffffffffffffffffffffffffff1614159050919050565b50505050565b50505050565b60006114dc8473ffffffffffffffffffffffffffffffffffffffff16611710565b15611635578373ffffffffffffffffffffffffffffffffffffffff1663150b7a02611505610af0565b8786866040518563ffffffff1660e01b81526004016115279493929190612503565b6020604051808303816000875af192505050801561156357506040513d601f19601f820116820180604052508101906115609190612564565b60015b6115e5573d8060008114611593576040519150601f19603f3d011682016040523d82523d6000602084013e611598565b606091505b5060008151036115dd576040517f08c379a00000000000000000000000000000000000000000000000000000000081526004016115d49061248e565b60405180910390fd5b805181602001fd5b63150b7a0260e01b7bffffffffffffffffffffffffffffffffffffffffffffffffffffffff1916817bffffffffffffffffffffffffffffffffffffffffffffffffffffffff19161491505061163a565b600190505b949350505050565b60606000600161165184611733565b01905060008167ffffffffffffffff8111156116705761166f611c52565b5b6040519080825280601f01601f1916602001820160405280156116a25781602001600182028036833780820191505090505b509050600082602001820190505b600115611705578080600190039150507f3031323334353637383961626364656600000000000000000000000000000000600a86061a8153600a85816116f9576116f8612591565b5b049450600085036116b0575b819350505050919050565b6000808273ffffffffffffffffffffffffffffffffffffffff163b119050919050565b600080600090507a184f03e93ff9f4daa797ed6e38ed64bf6a1f0100000000000000008310611791577a184f03e93ff9f4daa797ed6e38ed64bf6a1f010000000000000000838161178757611786612591565b5b0492506040810190505b6d04ee2d6d415b85acef810000000083106117ce576d04ee2d6d415b85acef810000000083816117c4576117c3612591565b5b0492506020810190505b662386f26fc1000083106117fd57662386f26fc1000083816117f3576117f2612591565b5b0492506010810190505b6305f5e1008310611826576305f5e100838161181c5761181b612591565b5b0492506008810190505b612710831061184b57612710838161184157611840612591565b5b0492506004810190505b6064831061186e576064838161186457611863612591565b5b0492506002810190505b600a831061187d576001810190505b80915050919050565b6000604051905090565b600080fd5b600080fd5b60007fffffffff0000000000000000000000000000000000000000000000000000000082169050919050565b6118cf8161189a565b81146118da57600080fd5b50565b6000813590506118ec816118c6565b92915050565b60006020828403121561190857611907611890565b5b6000611916848285016118dd565b91505092915050565b60008115159050919050565b6119348161191f565b82525050565b600060208201905061194f600083018461192b565b92915050565b600081519050919050565b600082825260208201905092915050565b60005b8381101561198f578082015181840152602081019050611974565b60008484015250505050565b6000601f19601f8301169050919050565b60006119b782611955565b6119c18185611960565b93506119d1818560208601611971565b6119da8161199b565b840191505092915050565b600060208201905081810360008301526119ff81846119ac565b905092915050565b6000819050919050565b611a1a81611a07565b8114611a2557600080fd5b50565b600081359050611a3781611a11565b92915050565b600060208284031215611a5357611a52611890565b5b6000611a6184828501611a28565b91505092915050565b600073ffffffffffffffffffffffffffffffffffffffff82169050919050565b6000611a9582611a6a565b9050919050565b611aa581611a8a565b82525050565b6000602082019050611ac06000830184611a9c565b92915050565b611acf81611a8a565b8114611ada57600080fd5b50565b600081359050611aec81611ac6565b92915050565b60008060408385031215611b0957611b08611890565b5b6000611b1785828601611add565b9250506020611b2885828601611a28565b9150509250929050565b600080600060608486031215611b4b57611b4a611890565b5b6000611b5986828701611add565b9350506020611b6a86828701611add565b9250506040611b7b86828701611a28565b9150509250925092565b600060208284031215611b9b57611b9a611890565b5b6000611ba984828501611add565b91505092915050565b611bbb81611a07565b82525050565b6000602082019050611bd66000830184611bb2565b92915050565b611be58161191f565b8114611bf057600080fd5b50565b600081359050611c0281611bdc565b92915050565b60008060408385031215611c1f57611c1e611890565b5b6000611c2d85828601611add565b9250506020611c3e85828601611bf3565b9150509250929050565b600080fd5b600080fd5b7f4e487b7100000000000000000000000000000000000000000000000000000000600052604160045260246000fd5b611c8a8261199b565b810181811067ffffffffffffffff82111715611ca957611ca8611c52565b5b80604052505050565b6000611cbc611886565b9050611cc88282611c81565b919050565b600067ffffffffffffffff821115611ce857611ce7611c52565b5b611cf18261199b565b9050602081019050919050565b82818337600083830152505050565b6000611d20611d1b84611ccd565b611cb2565b905082815260208101848484011115611d3c57611d3b611c4d565b5b611d47848285611cfe565b509392505050565b600082601f830112611d6457611d63611c48565b5b8135611d74848260208601611d0d565b91505092915050565b60008060008060808587031215611d9757611d96611890565b5b6000611da587828801611add565b9450506020611db687828801611add565b9350506040611dc787828801611a28565b925050606085013567ffffffffffffffff811115611de857611de7611895565b5b611df487828801611d4f565b91505092959194509250565b60008060408385031215611e1757611e16611890565b5b6000611e2585828601611add565b9250506020611e3685828601611add565b9150509250929050565b7f4e487b7100000000000000000000000000000000000000000000000000000000600052602260045260246000fd5b60006002820490506001821680611e8757607f821691505b602082108103611e9a57611e99611e40565b5b50919050565b7f4552433732313a20617070726f76616c20746f2063757272656e74206f776e6560008201527f7200000000000000000000000000000000000000000000000000000000000000602082015250565b6000611efc602183611960565b9150611f0782611ea0565b604082019050919050565b60006020820190508181036000830152611f2b81611eef565b9050919050565b7f4552433732313a20617070726f76652063616c6c6572206973206e6f7420746f60008201527f6b656e206f776e6572206f7220617070726f76656420666f7220616c6c000000602082015250565b6000611f8e603d83611960565b9150611f9982611f32565b604082019050919050565b60006020820190508181036000830152611fbd81611f81565b9050919050565b7f4552433732313a2063616c6c6572206973206e6f7420746f6b656e206f776e6560008201527f72206f7220617070726f76656400000000000000000000000000000000000000602082015250565b6000612020602d83611960565b915061202b82611fc4565b604082019050919050565b6000602082019050818103600083015261204f81612013565b9050919050565b7f4552433732313a20696e76616c696420746f6b656e2049440000000000000000600082015250565b600061208c601883611960565b915061209782612056565b602082019050919050565b600060208201905081810360008301526120bb8161207f565b9050919050565b7f4552433732313a2061646472657373207a65726f206973206e6f74206120766160008201527f6c6964206f776e65720000000000000000000000000000000000000000000000602082015250565b600061211e602983611960565b9150612129826120c2565b604082019050919050565b6000602082019050818103600083015261214d81612111565b9050919050565b600081905092915050565b600061216a82611955565b6121748185612154565b9350612184818560208601611971565b80840191505092915050565b600061219c828561215f565b91506121a8828461215f565b91508190509392505050565b7f4552433732313a207472616e736665722066726f6d20696e636f72726563742060008201527f6f776e6572000000000000000000000000000000000000000000000000000000602082015250565b6000612210602583611960565b915061221b826121b4565b604082019050919050565b6000602082019050818103600083015261223f81612203565b9050919050565b7f4552433732313a207472616e7366657220746f20746865207a65726f2061646460008201527f7265737300000000000000000000000000000000000000000000000000000000602082015250565b60006122a2602483611960565b91506122ad82612246565b604082019050919050565b600060208201905081810360008301526122d181612295565b9050919050565b7f4552433732313a206d696e7420746f20746865207a65726f2061646472657373600082015250565b600061230e602083611960565b9150612319826122d8565b602082019050919050565b6000602082019050818103600083015261233d81612301565b9050919050565b7f4552433732313a20746f6b656e20616c7265616479206d696e74656400000000600082015250565b600061237a601c83611960565b915061238582612344565b602082019050919050565b600060208201905081810360008301526123a98161236d565b9050919050565b7f4552433732313a20617070726f766520746f2063616c6c657200000000000000600082015250565b60006123e6601983611960565b91506123f1826123b0565b602082019050919050565b60006020820190508181036000830152612415816123d9565b9050919050565b7f4552433732313a207472616e7366657220746f206e6f6e20455243373231526560008201527f63656976657220696d706c656d656e7465720000000000000000000000000000602082015250565b6000612478603283611960565b91506124838261241c565b604082019050919050565b600060208201905081810360008301526124a78161246b565b9050919050565b600081519050919050565b600082825260208201905092915050565b60006124d5826124ae565b6124df81856124b9565b93506124ef818560208601611971565b6124f88161199b565b840191505092915050565b60006080820190506125186000830187611a9c565b6125256020830186611a9c565b6125326040830185611bb2565b818103606083015261254481846124ca565b905095945050505050565b60008151905061255e816118c6565b92915050565b60006020828403121561257a57612579611890565b5b60006125888482850161254f565b91505092915050565b7f4e487b7100000000000000000000000000000000000000000000000000000000600052601260045260246000fdfea2646970667358221220890b833bf6def222dcdf8a7e75cbd7bc6af5953d31717801d0762bff0d318af864736f6c63430008130033",
  "linkReferences": {},
  "deployedLinkReferences": {}
}